:100000000C9459000C9481000C9481000C94810094
:100010000C9481000C9481000C9481000C9481005C
:100020000C9481000C9481000C9481000C9481004C
:100030000C9481000C9481000C9481000C9481003C
:100040000C94EC020C9481000C94BA020C9494026F
:100050000C9481000C9481000C9481000C9481001C
:100060000C9481000C948100000000002500280001
:100070002B0000000000240027002A0000000000E0
:1000800023002600290004040404040404040202DA
:100090000202020203030303030301020408102007
:1000A00040800102040810200102040810203603D9
:1000B000A20511241FBECFEFD8E0DEBFCDBF21E0E7
:1000C000A6E2B1E001C01D92AC3EB207E1F711E03B
:1000D000A0E0B1E0EEE0F0E102C005900D92A632A2
:1000E000B107D9F710E0C8E5D0E004C02197FE01C0
:1000F0000E94DF05C735D107C9F70E94D0030C94D1
:10010000FA070C9400009091DA01E091DB01F09184
:10011000DC01F8948181292F2095822381837894B2
:100120008DE743E050E0815021F1DA011197F1F7BA
:1001300030813923C1F3F8948281822382838181C3
:10014000892B81837894ABE7B7E01197F1F7F894A6
:10015000818128232183A3E1B1E01197F1F7808108
:10016000982381E009F080E07894E3E6F6E03197A7
:10017000F1F708959091DA01E091DB01F091DC0153
:10018000392F309580FF13C0F8942281832F82236A
:1001900082838181892B8183A3E2B0E01197F1F7FB
:1001A0008281982B9283789487ED90E012C0F89426
:1001B0002281832F822382838181892B8183AFEFE8
:1001C000B0E01197F1F78281982B928378948FE0B9
:1001D00090E00197F1F708958091DA01E091DB0159
:1001E000F091DC01F8949181982B91832281982FD2
:1001F000909529232283A7E0B0E01197F1F72181A0
:1002000092239183A3E2B0E01197F1F79081789463
:10021000EFECF0E03197F1F7982381E009F480E00A
:100220000895CF92DF92EF92FF920F931F93CF9397
:10023000DF936C017A018B01C0E0D0E0CE15DF05C1
:1002400089F0D8016D918D01D601ED91FC9101905D
:10025000F081E02DC6010995892B11F47E0102C0C1
:100260002196ECCFC701DF91CF911F910F91FF90A5
:10027000EF90DF90CF900895089580E090E008958A
:10028000FC01538D448D252F30E0842F90E0821B9C
:10029000930B541710F0CF96089501970895FC0121
:1002A000918D828D981761F0828DDF01A80FB11DAD
:1002B0005D968C91928D9F5F9F73928F90E00895D1
:1002C0008FEF9FEF0895FC01918D828D981731F08B
:1002D000828DE80FF11D858D90E008958FEF9FEFDF
:1002E0000895FC01918D228D892F90E0805C9F4FB5
:1002F000821B91098F739927089587E391E00E94EB
:10030000710121E0892B09F420E0822F0895FC017E
:10031000848DDF01A80FB11DA35ABF4F2C91848D8E
:1003200090E001968F739927848FA689B7892C93C3
:10033000A089B1898C9180648C93938D848D98135E
:1003400006C00288F389E02D80818F7D8083089527
:10035000EF92FF920F931F93CF93DF93EC0181E015
:10036000888F9B8D8C8D981305C0E889F9898081D1
:1003700085FD24C0F62E0B8D10E00F5F1F4F0F730D
:100380001127E02E8C8DE8120CC00FB607FCFACFB7
:10039000E889F989808185FFF5CFCE010E94870128
:1003A000F1CF8B8DFE01E80FF11DE35AFF4FF08274
:1003B0000B8FEA89FB898081806207C0EE89FF8903
:1003C0006083E889F98980818064808381E090E09E
:1003D000DF91CF911F910F91FF90EF900895CF93F0
:1003E000DF93EC01888D8823C9F0EA89FB8980813D
:1003F00085FD05C0A889B9898C9186FD0FC00FB60F
:1004000007FCF5CF808185FFF2CFA889B9898C914F
:1004100085FFEDCFCE010E948701E7CFDF91CF911D
:10042000089580E090E0892B29F00E947D018111E0
:100430000C94000008953FB7F89480912B0190919F
:100440002C01A0912D01B0912E0126B5A89B05C0CD
:100450002F3F19F00196A11DB11D3FBFBA2FA92F43
:10046000982F8827820F911DA11DB11DBC01CD01C0
:1004700042E0660F771F881F991F4A95D1F70895AC
:10048000009769F0FC0101900020E9F73197AF0176
:10049000481B590BBC0187E391E00C94110180E0EB
:1004A00090E008950E94DC07EF92FF920F931F9354
:1004B000CF93DF93EC017B018A01888199810097BA
:1004C00029F02A813B8124173507F8F4B8016F5FC2
:1004D0007F4F0E941207009759F0998388831B83EE
:1004E0000A832C813D81232B81F4FC0110820DC0F5
:1004F00088819981009711F00E947A0619821882EA
:100500001D821C821B821A8207C01D830C83B701C7
:10051000888199810E94F307CE01DF91CF911F91CD
:100520000F91FF90EF9008951F920F920FB60F92C8
:1005300011242F933F934F935F936F937F938F93E8
:100540009F93AF93BF93EF93FF9387E391E00E9454
:100550008701FF91EF91BF91AF919F918F917F9113
:100560006F915F914F913F912F910F900FBE0F9020
:100570001F9018951F920F920FB60F9211242F9370
:100580008F939F93EF93FF93E0914701F091480180
:100590008081E0914D01F0914E0182FD12C0908169
:1005A000809150018F5F8F7320915101821751F01C
:1005B000E0915001F0E0E95CFE4F958F809350018F
:1005C00001C08081FF91EF919F918F912F910F90AA
:1005D0000FBE0F901F9018951F920F920FB60F929B
:1005E00011242F933F938F939F93AF93BF93809149
:1005F000270190912801A0912901B0912A01309101
:10060000260123E0230F2D3720F40196A11DB11DF3
:1006100005C026E8230F0296A11DB11D20932601D7
:100620008093270190932801A0932901B0932A0178
:1006300080912B0190912C01A0912D01B0912E0160
:100640000196A11DB11D80932B0190932C01A093C5
:100650002D01B0932E01BF91AF919F918F913F914A
:100660002F910F900FBE0F901F901895CF93DF938F
:1006700010923A011092390188EE93E0A0E0B0E0C8
:1006800080933B0190933C01A0933D01B0933E01C8
:100690008AE091E0909338018093370185EC90E0F7
:1006A000909344018093430184EC90E09093460141
:1006B0008093450180EC90E090934801809347013E
:1006C00081EC90E090934A018093490182EC90E0A4
:1006D00090934C0180934B0186EC90E090934E01F7
:1006E00080934D01109250011092510110925201CD
:1006F00010925301E1EAF0E02491EDE8F0E08491FA
:100700008823C1F090E0880F991FFC01EE58FF4F3D
:10071000C591D491FC01E859FF4FA591B4919FB7C1
:10072000F8948881E22FE0958E2388838C91E823CA
:10073000EC939FBFE1EAF0E0E491E093DA01EDE8A9
:10074000F0E0E491F0E0EE0FFF1FE458FF4F8591D9
:1007500094919093DC018093DB011092E50110925B
:10076000E7011092E601E5EEF1E0129281E0ED3D45
:10077000F807D9F71092D5011092D4011092D70141
:100780001092D6011092D9011092D80140E050E0A9
:1007900060E271E084ED91E0DF91CF910C9454021E
:1007A000CF93DF93CDB7DEB7A2970FB6F894DEBF35
:1007B0000FBECDBF789484B5826084BD84B581605E
:1007C00084BD85B5826085BD85B5816085BD80911C
:1007D0006E00816080936E00109281008091810094
:1007E000826080938100809181008160809381008C
:1007F000809180008160809380008091B10084604E
:100800008093B1008091B00081608093B0008091AE
:100810007A00846080937A0080917A00826080936D
:100820007A0080917A00816080937A0080917A00CA
:10083000806880937A001092C100E0914701F091A6
:10084000480182E08083E0914301F09144011082ED
:10085000E0914501F09146018FEC808310924F01A9
:10086000E0914B01F0914C0186E08083E0914901D9
:10087000F0914A01808180618083E0914901F0918B
:100880004A01808188608083E0914901F0914A01AA
:10089000808180688083E0914901F0914A018081E4
:1008A0008F7D8083E7EAF0E02491E3E9F0E0849132
:1008B000882399F090E0880F991FFC01EE58FF4FB4
:1008C000A591B491FC01E859FF4F859194918FB7A0
:1008D000F894EC91E22BEC938FBF88E191E00E94B9
:1008E00040028EE191E00E944002BB24B39440E0BC
:1008F00050E060E271E084ED91E00E94540280914A
:10090000E701811111C10E948300882309F40CC101
:1009100008E010E091E081E0292F207F09F480E0D9
:100920009AA30E94BA009AA1990F0150110999F750
:10093000F894E091DB01F091DC0191818091DA0182
:10094000809598239183E091DB01F091DC01928105
:1009500089238283789401E0F12CE12C11E00E943C
:10096000EC008AA30E94EC009AA1913019F4813026
:10097000C1F435C02F2D30E098131DC08091E501E2
:10098000181738F4F901E652FE4F8381802349F4A9
:1009900002C0181731F090E0193060F41093E601AE
:1009A00009C0EF2DF0E0E652FE4F8381802B838358
:1009B00091E009C0E12EF901E652FE4F2381802F1C
:1009C000809582238383892F0E94BA001F5F000FC6
:1009D00011F4F39401E027E02F1508F0C0CF113493
:1009E00008F4A2C0E092E501E11002C0B092E70174
:1009F0008091DD01882309F497C0ADEDB1E0EFE20D
:100A0000F1E08D91819381E0E733F807D1F742E07F
:100A100050E061E271E084ED91E00E9454020E9496
:100A20008300E090D801F090D901E114F10409F4B9
:100A300078C00091D4011091D50161E271E0C80144
:100A40000E94EA07892B09F062C007E311E0F80170
:100A500082918F01803120F484E291E00E94400273
:100A6000F801408150E060E070E019A2FE01B1960B
:100A7000DB01CA018F709927AA27BB2724E076954E
:100A80006795579547952A95D1F731978A30910503
:100A9000A105B10510F4805D01C0895C808341151A
:100AA00051056105710521F7CF010E944002F1E077
:100AB0000F321F0761F60E941B022B013C0188EEDA
:100AC000C82E83E0D82EE12CF12C0E941B02DC0101
:100AD000CB0184199509A609B709883E9340A10561
:100AE000B10558F021E0C21AD108E108F10888EEFA
:100AF000480E83E0581E611C711CC114D104E1042E
:100B0000F10419F78EE191E00E9440020AC0F80159
:100B10008081882331F0A701B80187E391E00E942A
:100B200011010E941102E3CE1092E5011092E7013B
:100B30001092E601E5EEF1E0129221E0ED3DF207C0
:100B4000D9F76FCF8091D4019091D5010C947A069A
:100B50002F923F924F925F926F927F928F929F92CD
:100B6000AF92BF92CF92DF92EF92FF920F931F93BB
:100B7000CF93DF93CDB7DEB7CA1BDB0B0FB6F8946C
:100B8000DEBF0FBECDBF09942A88398848885F84AC
:100B90006E847D848C849B84AA84B984C884DF801D
:100BA000EE80FD800C811B81AA81B981CE0FD11D01
:100BB0000FB6F894DEBF0FBECDBFED010895EE0F66
:100BC000FF1F0590F491E02D0994CF93DF938230BD
:100BD000910510F482E090E0E091EA01F091EB01E0
:100BE00020E030E0C0E0D0E0309711F14081518149
:100BF00048175907C0F04817590761F4828193815B
:100C0000209719F09B838A832BC09093EB018093EC
:100C1000EA0126C02115310519F04217530718F4CF
:100C20009A01BE01DF01EF010280F381E02DDCCFEC
:100C30002115310509F1281B390B2430310590F4B9
:100C400012968D919C9113976115710521F0FB010E
:100C50009383828304C09093EB018093EA01FD01AA
:100C6000329644C0FD01E20FF31F8193919322500D
:100C700031092D933C933AC02091E8013091E9016C
:100C8000232B41F420910201309103013093E901BB
:100C90002093E801209100013091010121153105D7
:100CA00041F42DB73EB74091040150910501241B3A
:100CB000350BE091E801F091E901E217F307A0F4A8
:100CC0002E1B3F0B2817390778F0AC014E5F5F4FA2
:100CD0002417350748F04E0F5F1F5093E9014093EA
:100CE000E8018193919302C0E0E0F0E0CF01DF9151
:100CF000CF9108950F931F93CF93DF93009709F43B
:100D00008CC0FC013297138212820091EA0110918B
:100D1000EB010115110581F420813181820F931FB0
:100D20002091E8013091E9012817390779F5F0930E
:100D3000E901E093E80171C0D80140E050E0AE174E
:100D4000BF0750F412962D913C911397AD012115D8
:100D5000310509F1D901F3CF9D01DA0133832283F3
:100D600060817181860F971F8217930769F4EC01E8
:100D700028813981260F371F2E5F3F4F3183208313
:100D80008A819B8193838283452B29F4F093EB0125
:100D9000E093EA0142C01396FC93EE931297ED01A3
:100DA000499159919E01240F351FE217F30771F401
:100DB00080819181840F951F029611969C938E934A
:100DC0008281938113969C938E931297E0E0F0E0DA
:100DD000D80112968D919C911397009719F0F80104
:100DE0008C01F6CF8D919C9198012E5F3F4F820F21
:100DF000931F2091E8013091E9012817390769F420
:100E0000309729F41092EB011092EA0102C013828C
:100E100012821093E9010093E801DF91CF911F91B5
:100E20000F910895A0E0B0E0E8E1F7E00C94AC0584
:100E3000EC01009721F4CB010E94E505B8C0FC014C
:100E4000E60FF71F9C0122503109E217F30708F45F
:100E5000ACC0D9010D911C91119706171707B0F07E
:100E60000530110508F49FC0C8010497861797073D
:100E700008F499C002501109061B170B0193119336
:100E80006D937C93CF010E947A068DC05B01A01AFE
:100E9000B10A4C01800E911EA091EA01B091EB01C4
:100EA00040E050E0E12CF12C109709F44AC0A8155D
:100EB000B905D1F56D907C901197630182E0C80E61
:100EC000D11CCA14DB0480F1A3014A195B096A0131
:100ED00082E0C80ED11C1296BC9012971396AC916A
:100EE000B5E0CB16D10440F0B282A3835183408396
:100EF000D9016D937C930AC00E5F1F4FC301800F11
:100F0000911FF90191838083EB2DFA2FE114F104F5
:100F100031F0D7011396FC93EE93129744C0F093EF
:100F2000EB01E093EA013FC08D919C911197481726
:100F3000590708F4AC017D0112960D90BC91A02DCB
:100F4000B3CF8091E8019091E90188159905E1F40A
:100F500046175707C8F4809100019091010100974E
:100F600041F48DB79EB74091040150910501841B57
:100F7000950BE817F907C8F4F093E901E093E8014D
:100F8000F901718360830FC0CB010E94E5057C01EC
:100F9000009759F0A801BE010E94E107CE010E940E
:100FA0007A06C70104C0CE0102C080E090E0CDB750
:100FB000DEB7EEE00C94C80581E090E0F8940C9464
:100FC000FA07FB01DC0102C001900D924150504034
:100FD000D8F70895FB01DC018D9101908019011073
:100FE000D9F3990B0895FB01DC0101900D920020CB
:100FF000E1F7089510E0C8E5D0E004C0FE010E94CA
:0E100000DF052196C935D107C9F7F894FFCF57
:10100E000000EC01800000000000A8011101400169
:10101E00EF0171014F0163017265616479000D0A80
:06102E00006F6B003000B2
:00000001FF
